:1000000010C01FC01EC01DC01CC01BC01AC019C01C
:1000100019C09DC016C015C014C013C012C011C0B5
:1000200010C011241FBECFE5D2E0DEBFCDBF10E06F
:10003000A0E6B0E001C01D92A537B107E1F7A0D05E
:1000400065C4DECF1F920F920FB60F9211242F932B
:100050003F938F939F9384B195B190937000809359
:100060006F0080916F00909170008A519240E0F192
:1000700080916F0090917000895192409093700030
:1000800080936F00209161003091620080916F0039
:1000900090917000820F931F909362008093610093
:1000A0008091610090916200815A9F4030F080EA17
:1000B0009FE0909362008093610080917100909125
:1000C000720001969093720080937100809171008C
:1000D000909172008150944088F180E094E0909378
:1000E0007200809371002AC080916D0090916E0023
:1000F000019690936E0080936D00809171009091B5
:100100007200099798F08091610090916200893C9B
:10011000910560F08091710090917200909374004D
:100120008093730010926E0010926D001092620026
:100130001092610010927200109271009F918F9145
:100140003F912F910F900FBE0F901F9018951F9207
:100150000F920FB60F9211248F9313BE8EEF82BFB2
:100160008F910F900FBE0F901F90189587B986EC56
:1001700086B9349BFECF349A24B135B1C9010895B4
:100180002F923F924F925F926F927F928F929F92A7
:10019000AF92BF92CF92DF92EF92FF920F931F9395
:1001A000DF93CF93CDB7DEB728970FB6F894DEBFB5
:1001B0000FBECDBF1ABA87E087BBC29AC09AC19A58
:1001C00078941FBC1EBC1CB817B816B813B823EC23
:1001D00020BF33E033BF42E049BF5EEF52BF16BEDF
:1001E00087E0C4DF8DC187E0C1DFA0E0B0E0F6E0CA
:1001F000880F991FAA1FBB1FFA95D1F7809367003C
:1002000090936800A0936900B0936A0083E0AEDF2A
:100210009C01BC0180E090E06093630070936400F7
:100220008093650090936600693EA3E07A07A0E0A2
:100230008A07A0E09A0720F0E1E0E093600065C142
:10024000A901E4E056954795EA95E1F74D5F5F4FC8
:1002500058874F8350936C0040936B0035E0660FD6
:10026000771F881F991F3A95D1F768517C4F8F4FA0
:100270009F4F609363007093640080936500909338
:1002800066002091670030916800409169005091AC
:100290006A002B833C834D835E8321503240404073
:1002A000504008F05AC0C198EF81E6BFF3E0F3BFB9
:1002B0002AE62A95F1F7C19A08D25B016C012BEA74
:1002C0003AEA4AE250E4B7D27B018C0120E030E008
:1002D00040E85FE362D188230CF4C4C0C801B701D1
:1002E00020E030E04FE753E4A2D218160CF003C12F
:1002F000C601B50120E030E04AE754E452D15B0189
:100300006C0120E030E04AEF54E495D27B018C018F
:1003100020E030E040E85FE340D188230CF4C5C022
:10032000C801B70120E03FEF4FE757E480D218162D
:100330000CF0DAC0C601B50120E030E040E251E443
:100340007AD297D106C088EC90E00197F1F761501E
:10035000704061157105B9F7D3C0B7D11B012C01ED
:100360002BEA3AEA4AE250E466D23B014C0181D1E1
:1003700069831A82C1982F8126BF33E033BF8AE692
:100380008A95F1F7C19AC401B30120E030E040E85A
:100390005FE303D187FD48C0C401B30120E030E032
:1003A0004FE753E444D2181614F089813EC0C201CD
:1003B000B10120E030E04AE754E4F3D05B016C0186
:1003C00020E030E04AEF54E436D27B018C0120E09B
:1003D00030E040E85FE3E1D088231CF461E070E0A6
:1003E0001FC0C801B70120E03FEF4FE757E41FD21D
:1003F00018169CF4C601B50120E030E040E251E45B
:100400001AD237D106C088EC90E00197F1F761501D
:10041000704061157105B9F70AC0C801B70129D14B
:10042000CB010197F1F703C081E08A95F1F74A818A
:100430004F5F4A83443009F09DCF6B817C818D8171
:100440009E8143D15B016C012BEA3AEA4AE250E417
:10045000F2D17B018C0120E030E040E85FE39DD0E9
:10046000882314F461E04AC0C801B70120E030E0FD
:100470004FE753E4DCD118160CF03DC0C601B501BE
:1004800020E030E04AE754E48CD05B016C0120E0CE
:1004900030E04AEF54E4CFD17B018C0120E030E022
:1004A00040E85FE37AD088231CF461E070E01FC06D
:1004B000C801B70120E03FEF4FE757E4B8D1181665
:1004C0009CF4C601B50120E030E040E251E4B3D134
:1004D000D0D006C088EC90E00197F1F761507040F1
:1004E00061157105B9F70CC0C801B701C2D0CB01C5
:1004F0000197F1F705C0C801B701BBD06A95F1F7C4
:1005000080916000882309F46ECE53E05FBD89E1DD
:100510008EBD91E09CB9E8ECF0E0FBBDEABD24E6BD
:1005200030E039BD28BD32E037B943EE46B956E078
:1005300053B910926E0010926D0029C08091730023
:1005400090917400892BA9F08091730090917400B0
:1005500023E0969587952A95E1F786BF109274005F
:100560001092730083E083BFC1988AE68A95F1F701
:10057000C19A80916D0090916E0081549C4938F031
:1005800010926E0010926D00109260001ACE809151
:100590006000813009F015CED1CFD4D008F481E0CD
:1005A00008950CD00AC102D140F0F9D030F021F406
:1005B0005F3F19F0EBC0511134C1EEC00FD198F379
:1005C0009923C9F35523B1F3951B550BBB27AA27D4
:1005D00062177307840738F09F5F5F4F220F331F46
:1005E000441FAA1FA9F333D00E2E3AF0E0E830D012
:1005F00091505040E695001CCAF729D0FE2F27D015
:10060000660F771F881FBB1F261737074807AB07E2
:10061000B0E809F0BB0B802DBF01FF2793585F4F57
:100620002AF09E3F510568F0B1C0FBC05F3FECF37C
:10063000983EDCF3869577956795B795F7959F5F1C
:10064000C9F7880F911D9695879597F90895E1E070
:10065000660F771F881FBB1F621773078407BA07CF
:1006600020F0621B730B840BBA0BEE1F88F7E0952A
:100670000895BCD088F09F5790F0B92F9927B751B3
:10068000A0F0D1F0660F771F881F991F1AF0BA9556
:10069000C9F712C0B13081F0C3D0B1E00895C0C035
:1006A000672F782F8827B85F39F0B93FCCF386954C
:1006B00077956795B395D9F73EF4909580957095A9
:1006C00061957F4F8F4F9F4F0895E89409C097FB26
:1006D0003EF490958095709561957F4F8F4F9F4F19
:1006E0009923A9F0F92F96E9BB279395F69587955D
:1006F00077956795B795F111F8CFFAF4BB0F11F420
:1007000060FF1BC06F5F7F4F8F4F9F4F16C08823C6
:1007100011F096E911C0772321F09EE8872F762FFC
:1007200005C0662371F096E8862F70E060E02AF03D
:100730009A95660F771F881FDAF7880F9695879529
:1007400097F90895990F0008550FAA0BE0E8FEEFFE
:1007500016161706E807F907C0F012161306E40785
:10076000F50798F0621B730B840B950B39F40A267E
:1007700061F0232B242B252B21F408950A2609F45C
:10078000A140A6958FEF811D811D089597F99F6760
:1007900080E870E060E008959FEF80EC0895002409
:1007A0000A941616170618060906089500240A94D6
:1007B00012161306140605060895092E0394000C5C
:1007C00011F4882352F0BB0F40F4BF2B11F460FFEB
:1007D00004C06F5F7F4F8F4F9F4F089557FD905814
:1007E000440F551F59F05F3F71F04795880F97FBF5
:1007F000991F61F09F3F79F08795089512161306AF
:100800001406551FF2CF4695F1DF08C016161706DD
:100810001806991FF1CF8695710561050894089512
:10082000E894BB2766277727CB0197F908958ADFDD
:1008300008F48FEF08950AD0C0CFB1DF28F0B6DFFB
:1008400018F0952309F0A2CFA7CFEBCFC7DFA8F30D
:100850009923D9F35523C9F3950F50E0551FAA27C3
:10086000EE27FF27BB2700240894679520F4E20FAA
:10087000F31FB41F0A1E220F331F441FAA1F6695C1
:10088000A9F7779530F4F30FB41F0A1E121E08F46F
:100890006395330F441FAA1F221F769599F78795FA
:1008A00020F4B40F0A1E121E631F440FAA1F221F3A
:1008B000331F8695A9F7862F712D602D11249F5720
:1008C00050408AF0E1F088234AF0EE0FFF1FBB1F73
:1008D000661F771F881F91505040A9F79E3F510512
:1008E00070F054CF9ECF5F3FECF3983EDCF38695DB
:1008F00077956795B795F795E7959F5FC1F7FE2BBD
:10090000880F911D9695879597F90895F894FFCFD4
:00000001FF
